:020000020000FC
:100000000C94020008E00EBF0FEF0DBF0FEF0AB90E
:100010000FE707B9442755276627882711D043954E
:100020004A3009F0D9F744275395563009F0B1F713
:1000300063956A3009F091F78395823059F371F72F
:10004000AFE29FE1BFE1042F27D00BB978E078B988
:1000500019D0052F21D00BB974E078B913D0062F31
:100060001BD00BB972E078B90DD0062F15D00BB9A3
:1000700071E078B907D0BA95F1F79A9519F7AA9572
:1000800001F7089516E027EC39EC3A95F1F72A9537
:10009000D9F71A95C1F70895003009F002C00EE7AC
:1000A0000895013009F002C000E30895023009F01C
:1000B00002C00DE60895033009F002C009E7089573
:1000C000043009F002C003E30895053009F002C0CE
:1000D0000BE50895063009F002C00FE108950730DE
:1000E00009F002C000E70895083009F002C00FE7E8
:0E00F0000895093009F002C003E7089508954D
:00000001FF
