:020000020000FC
:0200000035C009
:10006C000FEF18E00DBF1EBFF8940FEF04B90AB9DB
:10007C007894EA9A002755276627772780E19CE039
:10008C0005B90BB99030B1F31FEF2FEF3FEF3A9555
:10009C00F1F72A95D9F71A95C1F713E82FE832EB47
:1000AC003A95F1F72A95D9F71A95C1F705B1039549
:1000BC0005B90F700A3031F70027580F55B9503673
:1000CC0009F7552755B99A9563956BB96F706A30D6
:1000DC00C9F66070780F7BB97130A1F670707BB97E
:1000EC00C9CFA8B1A13029F0A23029F0A33029F052
:0C00FC00F8CF0395F6CF6395F4CF18956C
:00000001FF
