:020000020000FC
:100000000C94020048E04EBF4FEF4DBF4FEF44B994
:1000100047B940E04AB944274BB1413029F042305A
:1000200031F0443039F0F8CF039505B9F5CF639539
:1000300068B9F2CF04C0002755276627772780E1EB
:100040009CE005B908B99030B1F319E02CEB34EC21
:100050003A95F1F72A95D9F71A95C1F705B10395A5
:1000600005B90F700A3079F7002705B9580F55B94F
:10007000503649F7552755B99A95639568B96F7009
:100080006A3009F7662768B97395780F78B97230C6
:08009000D1F6772778B9CFCF34
:00000001FF
