:020000020000FC
:100000000C94020008E00EBF0FEF0DBF0FEF0AB90E
:1000100000E004B903B101D0FDCF003099F0023007
:1000200089F0043079F0063069F0083059F0013079
:10003000C9F00330B9F00530A9F0073099F0093064
:1000400089F0089541E04BB91DD042E14BB91AD077
:100050004CE44BB917D04FE14BB914D040E04BB949
:1000600011D008954FE44BB90DD046E04BB90AD0FA
:1000700044E24BB907D04FE04BB904D040E04BB954
:1000800001D0089511E021E031E03A95F1F72A9589
:08009000D9F71A95C1F7089594
:00000001FF
