:020000020000FC
:100000000C94020008E00EBF0FEF0DBF0FEF0AB90E
:100010000FE707B900E004B944275527002714E685
:100020002AE003B1011B18F043950C941200010F54
:10003000021B18F053950C941800020F0093000156
:100040005093010140930201009102010BB971E04C
:1000500078B90DD0009101010BB972E078B907D0E1
:10006000009100010BB974E078B901D0D5CF11E04F
:1000700021E031E03A95F1F72A95D9F71A95C1F7C1
:020080000895E1
:00000001FF
