:020000020000FC
:100000000C94020008E00EBF0FEF0DBF0FEF0AB90E
:100010000FE707B900E004B944275527002714E685
:100020002AE003B1011B18F043950C941200010F54
:10003000021B18F053950C941800020F0093000156
:100040005093010140930201009102011DD00BB9B0
:1000500071E078B90FD00091010116D00BB972E0B0
:1000600078B908D0009100010FD00BB974E078B9CD
:1000700001D0D2CF16E027E139E13A95F1F72A9580
:10008000D9F71A95C1F70895003009F002C00EE7BC
:100090000895013009F002C000E30895023009F02C
:1000A00002C00DE60895033009F002C009E7089583
:1000B000043009F002C003E30895053009F002C0DE
:1000C0000BE50895063009F002C00FE108950730EE
:1000D00009F002C000E70895083009F002C00FE7F8
:0E00E0000895093009F002C003E7089508955D
:00000001FF
