:020000020000FC
:100000000C94020008E00EBF0FEF0DBF0FEF0AB90E
:100010000FE707B900E004B944275527002714E685
:100020002AE003B1011B18F043950C941200010F54
:10003000021B18F053950C941800020F0093000156
:100040005093010140930201009102011DD00BB9B0
:1000500071E078B90FD00091010116D00BB972E0B0
:1000600078B908D0009100010FD00BB974E078B9CD
:1000700001D0D2CF16E027E139E13A95F1F72A9580
:10008000D9F71A95C1F70895003009F002C001E0D0
:100090000895013009F002C00FE40895023009F01C
:1000A00002C002E10895033009F002C006E008959D
:1000B000043009F002C00CE40895053009F002C0D4
:1000C00004E20895063009F002C000E60895073002
:1000D00009F002C00FE00895083009F002C000E006
:0E00E0000895093009F002C00CE0089508955B
:00000001FF
