:020000020000FC
:100000000C94020008E00EBF0FEF0DBF0FE005B922
:1000100004B90FEF0AB93FEF2EE006C02DE004C08F
:100020002BE002C027E000C010EE0ED010ED0CD087
:1000300010EB0AD010E708D0333081F3373081F36A
:100040003B3081F33F3039F3120F339515B946D069
:1000500003B1011709F008953030F1F03130F1F0BB
:100060003230F1F0333061F13430E1F03530E1F02D
:100070003630E1F0373031F13830D1F03930D1F06D
:100080003A30D1F03B3001F13C3011F13D30B1F06C
:100090003E3001F13F30D1F001E01ED002E01CD033
:1000A00003E01AD004E018D005E016D006E014D022
:1000B00007E012D008E010D009E00ED000E00CD02C
:1000C0000AE00AD00BE008D00CE006D00DE004D026
:1000D0000EE002D00FE000D00BB99DCF60E250E2FD
:0A00E0005A95F1F76A95D9F70895D3
:00000001FF
